{
  "_format": "hh-sol-artifact-1",
  "contractName": "GoalNFT",
  "sourceName": "contracts/GoalNFT.sol",
  "abi": [
    {
      "inputs": [
        {
          "internalType": "string",
          "name": "_baseUrl",
          "type": "string"
        }
      ],
      "stateMutability": "nonpayable",
      "type": "constructor"
    },
    {
      "anonymous": false,
      "inputs": [
        {
          "indexed": true,
          "internalType": "address",
          "name": "owner",
          "type": "address"
        },
        {
          "indexed": true,
          "internalType": "address",
          "name": "approved",
          "type": "address"
        },
        {
          "indexed": true,
          "internalType": "uint256",
          "name": "tokenId",
          "type": "uint256"
        }
      ],
      "name": "Approval",
      "type": "event"
    },
    {
      "anonymous": false,
      "inputs": [
        {
          "indexed": true,
          "internalType": "address",
          "name": "owner",
          "type": "address"
        },
        {
          "indexed": true,
          "internalType": "address",
          "name": "operator",
          "type": "address"
        },
        {
          "indexed": false,
          "internalType": "bool",
          "name": "approved",
          "type": "bool"
        }
      ],
      "name": "ApprovalForAll",
      "type": "event"
    },
    {
      "anonymous": false,
      "inputs": [
        {
          "indexed": true,
          "internalType": "address",
          "name": "previousOwner",
          "type": "address"
        },
        {
          "indexed": true,
          "internalType": "address",
          "name": "newOwner",
          "type": "address"
        }
      ],
      "name": "OwnershipTransferred",
      "type": "event"
    },
    {
      "anonymous": false,
      "inputs": [
        {
          "indexed": true,
          "internalType": "address",
          "name": "from",
          "type": "address"
        },
        {
          "indexed": true,
          "internalType": "address",
          "name": "to",
          "type": "address"
        },
        {
          "indexed": true,
          "internalType": "uint256",
          "name": "tokenId",
          "type": "uint256"
        }
      ],
      "name": "Transfer",
      "type": "event"
    },
    {
      "inputs": [
        {
          "internalType": "address",
          "name": "to",
          "type": "address"
        },
        {
          "internalType": "uint256",
          "name": "tokenId",
          "type": "uint256"
        }
      ],
      "name": "approve",
      "outputs": [],
      "stateMutability": "nonpayable",
      "type": "function"
    },
    {
      "inputs": [
        {
          "internalType": "address",
          "name": "owner",
          "type": "address"
        }
      ],
      "name": "balanceOf",
      "outputs": [
        {
          "internalType": "uint256",
          "name": "",
          "type": "uint256"
        }
      ],
      "stateMutability": "view",
      "type": "function"
    },
    {
      "inputs": [],
      "name": "baseUrl",
      "outputs": [
        {
          "internalType": "string",
          "name": "",
          "type": "string"
        }
      ],
      "stateMutability": "view",
      "type": "function"
    },
    {
      "inputs": [
        {
          "internalType": "uint256",
          "name": "tokenId",
          "type": "uint256"
        }
      ],
      "name": "getApproved",
      "outputs": [
        {
          "internalType": "address",
          "name": "",
          "type": "address"
        }
      ],
      "stateMutability": "view",
      "type": "function"
    },
    {
      "inputs": [
        {
          "internalType": "address",
          "name": "owner",
          "type": "address"
        },
        {
          "internalType": "address",
          "name": "operator",
          "type": "address"
        }
      ],
      "name": "isApprovedForAll",
      "outputs": [
        {
          "internalType": "bool",
          "name": "",
          "type": "bool"
        }
      ],
      "stateMutability": "view",
      "type": "function"
    },
    {
      "inputs": [
        {
          "internalType": "address[]",
          "name": "recipients",
          "type": "address[]"
        },
        {
          "internalType": "string",
          "name": "tokenURI",
          "type": "string"
        }
      ],
      "name": "mintNFT",
      "outputs": [
        {
          "internalType": "uint256",
          "name": "",
          "type": "uint256"
        }
      ],
      "stateMutability": "nonpayable",
      "type": "function"
    },
    {
      "inputs": [],
      "name": "name",
      "outputs": [
        {
          "internalType": "string",
          "name": "",
          "type": "string"
        }
      ],
      "stateMutability": "view",
      "type": "function"
    },
    {
      "inputs": [],
      "name": "owner",
      "outputs": [
        {
          "internalType": "address",
          "name": "",
          "type": "address"
        }
      ],
      "stateMutability": "view",
      "type": "function"
    },
    {
      "inputs": [
        {
          "internalType": "uint256",
          "name": "tokenId",
          "type": "uint256"
        }
      ],
      "name": "ownerOf",
      "outputs": [
        {
          "internalType": "address",
          "name": "",
          "type": "address"
        }
      ],
      "stateMutability": "view",
      "type": "function"
    },
    {
      "inputs": [],
      "name": "renounceOwnership",
      "outputs": [],
      "stateMutability": "nonpayable",
      "type": "function"
    },
    {
      "inputs": [
        {
          "internalType": "address",
          "name": "from",
          "type": "address"
        },
        {
          "internalType": "address",
          "name": "to",
          "type": "address"
        },
        {
          "internalType": "uint256",
          "name": "tokenId",
          "type": "uint256"
        }
      ],
      "name": "safeTransferFrom",
      "outputs": [],
      "stateMutability": "nonpayable",
      "type": "function"
    },
    {
      "inputs": [
        {
          "internalType": "address",
          "name": "from",
          "type": "address"
        },
        {
          "internalType": "address",
          "name": "to",
          "type": "address"
        },
        {
          "internalType": "uint256",
          "name": "tokenId",
          "type": "uint256"
        },
        {
          "internalType": "bytes",
          "name": "_data",
          "type": "bytes"
        }
      ],
      "name": "safeTransferFrom",
      "outputs": [],
      "stateMutability": "nonpayable",
      "type": "function"
    },
    {
      "inputs": [
        {
          "internalType": "address",
          "name": "operator",
          "type": "address"
        },
        {
          "internalType": "bool",
          "name": "approved",
          "type": "bool"
        }
      ],
      "name": "setApprovalForAll",
      "outputs": [],
      "stateMutability": "nonpayable",
      "type": "function"
    },
    {
      "inputs": [
        {
          "internalType": "string",
          "name": "_baseUrl",
          "type": "string"
        }
      ],
      "name": "setBaseUrl",
      "outputs": [
        {
          "internalType": "bool",
          "name": "",
          "type": "bool"
        }
      ],
      "stateMutability": "nonpayable",
      "type": "function"
    },
    {
      "inputs": [
        {
          "internalType": "bytes4",
          "name": "interfaceId",
          "type": "bytes4"
        }
      ],
      "name": "supportsInterface",
      "outputs": [
        {
          "internalType": "bool",
          "name": "",
          "type": "bool"
        }
      ],
      "stateMutability": "view",
      "type": "function"
    },
    {
      "inputs": [],
      "name": "symbol",
      "outputs": [
        {
          "internalType": "string",
          "name": "",
          "type": "string"
        }
      ],
      "stateMutability": "view",
      "type": "function"
    },
    {
      "inputs": [
        {
          "internalType": "uint256",
          "name": "tokenId",
          "type": "uint256"
        }
      ],
      "name": "tokenURI",
      "outputs": [
        {
          "internalType": "string",
          "name": "",
          "type": "string"
        }
      ],
      "stateMutability": "view",
      "type": "function"
    },
    {
      "inputs": [
        {
          "internalType": "address",
          "name": "from",
          "type": "address"
        },
        {
          "internalType": "address",
          "name": "to",
          "type": "address"
        },
        {
          "internalType": "uint256",
          "name": "tokenId",
          "type": "uint256"
        }
      ],
      "name": "transferFrom",
      "outputs": [],
      "stateMutability": "nonpayable",
      "type": "function"
    },
    {
      "inputs": [
        {
          "internalType": "address",
          "name": "newOwner",
          "type": "address"
        }
      ],
      "name": "transferOwnership",
      "outputs": [],
      "stateMutability": "nonpayable",
      "type": "function"
    }
  ],
  "bytecode": "0x60806040523480156200001157600080fd5b5060405162001dc438038062001dc48339810160408190526200003491620001cd565b60408051808201825260098152681218589a5d10dd5b1d60ba1b60208083019182528351808501909452600484526310d5531560e21b908401528151919291620000819160009162000127565b5080516200009790600190602084019062000127565b505050620000b4620000ae620000d160201b60201c565b620000d5565b8051620000c990600990602084019062000127565b5050620002f6565b3390565b600780546001600160a01b038381166001600160a01b0319831681179093556040519116919082907f8be0079c531659141344cd1fd0a4f28419497f9722a3daafe3b4186f6b6457e090600090a35050565b8280546200013590620002a3565b90600052602060002090601f016020900481019282620001595760008555620001a4565b82601f106200017457805160ff1916838001178555620001a4565b82800160010185558215620001a4579182015b82811115620001a457825182559160200191906001019062000187565b50620001b2929150620001b6565b5090565b5b80821115620001b25760008155600101620001b7565b60006020808385031215620001e0578182fd5b82516001600160401b0380821115620001f7578384fd5b818501915085601f8301126200020b578384fd5b815181811115620002205762000220620002e0565b604051601f8201601f19908116603f011681019083821181831017156200024b576200024b620002e0565b81604052828152888684870101111562000263578687fd5b8693505b8284101562000286578484018601518185018701529285019262000267565b828411156200029757868684830101525b98975050505050505050565b600181811c90821680620002b857607f821691505b60208210811415620002da57634e487b7160e01b600052602260045260246000fd5b50919050565b634e487b7160e01b600052604160045260246000fd5b611abe80620003066000396000f3fe608060405234801561001057600080fd5b50600436106101215760003560e01c8063715018a6116100ad578063b88d4fde11610071578063b88d4fde1461024c578063c7c3268b1461025f578063c87b56dd14610272578063e985e9c514610285578063f2fde38b146102c157600080fd5b8063715018a614610205578063855bfe911461020d5780638da5cb5b1461022057806395d89b4114610231578063a22cb4651461023957600080fd5b806323b872dd116100f457806323b872dd146101a357806342842e0e146101b65780635bcabf04146101c95780636352211e146101d157806370a08231146101e457600080fd5b806301ffc9a71461012657806306fdde031461014e578063081812fc14610163578063095ea7b31461018e575b600080fd5b610139610134366004611720565b6102d4565b60405190151581526020015b60405180910390f35b610156610326565b604051610145919061183b565b61017661017136600461178b565b6103b8565b6040516001600160a01b039091168152602001610145565b6101a161019c366004611627565b610445565b005b6101a16101b1366004611539565b61055b565b6101a16101c4366004611539565b61058c565b6101566105a7565b6101766101df36600461178b565b610635565b6101f76101f23660046114ed565b6106ac565b604051908152602001610145565b6101a1610733565b6101f761021b366004611650565b610769565b6007546001600160a01b0316610176565b610156610818565b6101a16102473660046115ed565b610827565b6101a161025a366004611574565b610836565b61013961026d366004611758565b61086e565b61015661028036600461178b565b61088d565b610139610293366004611507565b6001600160a01b03918216600090815260056020908152604080832093909416825291909152205460ff1690565b6101a16102cf3660046114ed565b610a04565b60006001600160e01b031982166380ac58cd60e01b148061030557506001600160e01b03198216635b5e139f60e01b145b8061032057506301ffc9a760e01b6001600160e01b03198316145b92915050565b606060008054610335906119c6565b80601f0160208091040260200160405190810160405280929190818152602001828054610361906119c6565b80156103ae5780601f10610383576101008083540402835291602001916103ae565b820191906000526020600020905b81548152906001019060200180831161039157829003601f168201915b5050505050905090565b60006103c382610a9f565b6104295760405162461bcd60e51b815260206004820152602c60248201527f4552433732313a20617070726f76656420717565727920666f72206e6f6e657860448201526b34b9ba32b73a103a37b5b2b760a11b60648201526084015b60405180910390fd5b506000908152600460205260409020546001600160a01b031690565b600061045082610635565b9050806001600160a01b0316836001600160a01b031614156104be5760405162461bcd60e51b815260206004820152602160248201527f4552433732313a20617070726f76616c20746f2063757272656e74206f776e656044820152603960f91b6064820152608401610420565b336001600160a01b03821614806104da57506104da8133610293565b61054c5760405162461bcd60e51b815260206004820152603860248201527f4552433732313a20617070726f76652063616c6c6572206973206e6f74206f7760448201527f6e6572206e6f7220617070726f76656420666f7220616c6c00000000000000006064820152608401610420565b6105568383610abc565b505050565b6105653382610b2a565b6105815760405162461bcd60e51b8152600401610420906118d5565b610556838383610c10565b61055683838360405180602001604052806000815250610836565b600980546105b4906119c6565b80601f01602080910402602001604051908101604052809291908181526020018280546105e0906119c6565b801561062d5780601f106106025761010080835404028352916020019161062d565b820191906000526020600020905b81548152906001019060200180831161061057829003601f168201915b505050505081565b6000818152600260205260408120546001600160a01b0316806103205760405162461bcd60e51b815260206004820152602960248201527f4552433732313a206f776e657220717565727920666f72206e6f6e657869737460448201526832b73a103a37b5b2b760b91b6064820152608401610420565b60006001600160a01b0382166107175760405162461bcd60e51b815260206004820152602a60248201527f4552433732313a2062616c616e636520717565727920666f7220746865207a65604482015269726f206164647265737360b01b6064820152608401610420565b506001600160a01b031660009081526003602052604090205490565b6007546001600160a01b0316331461075d5760405162461bcd60e51b8152600401610420906118a0565b6107676000610db0565b565b6007546000906001600160a01b031633146107965760405162461bcd60e51b8152600401610420906118a0565b6107a4600880546001019055565b60006107af60085490565b905060005b84518110156108105760008582815181106107df57634e487b7160e01b600052603260045260246000fd5b602002602001015190506107f38184610e02565b6107fd8386610f35565b508061080881611a01565b9150506107b4565b509392505050565b606060018054610335906119c6565b610832338383610fc0565b5050565b6108403383610b2a565b61085c5760405162461bcd60e51b8152600401610420906118d5565b6108688484848461108f565b50505050565b80516000906108849060099060208501906113c1565b50600192915050565b606061089882610a9f565b6108fe5760405162461bcd60e51b815260206004820152603160248201527f45524337323155524953746f726167653a2055524920717565727920666f72206044820152703737b732bc34b9ba32b73a103a37b5b2b760791b6064820152608401610420565b60008281526006602052604081208054610917906119c6565b80601f0160208091040260200160405190810160405280929190818152602001828054610943906119c6565b80156109905780601f1061096557610100808354040283529160200191610990565b820191906000526020600020905b81548152906001019060200180831161097357829003601f168201915b5050505050905060006109ae60408051602081019091526000815290565b90508051600014156109c1575092915050565b8151156109f35780826040516020016109db9291906117cf565b60405160208183030381529060405292505050919050565b6109fc846110c2565b949350505050565b6007546001600160a01b03163314610a2e5760405162461bcd60e51b8152600401610420906118a0565b6001600160a01b038116610a935760405162461bcd60e51b815260206004820152602660248201527f4f776e61626c653a206e6577206f776e657220697320746865207a65726f206160448201526564647265737360d01b6064820152608401610420565b610a9c81610db0565b50565b6000908152600260205260409020546001600160a01b0316151590565b600081815260046020526040902080546001600160a01b0319166001600160a01b0384169081179091558190610af182610635565b6001600160a01b03167f8c5be1e5ebec7d5bd14f71427d1e84f3dd0314c0f7b2291e5b200ac8c7c3b92560405160405180910390a45050565b6000610b3582610a9f565b610b965760405162461bcd60e51b815260206004820152602c60248201527f4552433732313a206f70657261746f7220717565727920666f72206e6f6e657860448201526b34b9ba32b73a103a37b5b2b760a11b6064820152608401610420565b6000610ba183610635565b9050806001600160a01b0316846001600160a01b03161480610bdc5750836001600160a01b0316610bd1846103b8565b6001600160a01b0316145b806109fc57506001600160a01b0380821660009081526005602090815260408083209388168352929052205460ff166109fc565b826001600160a01b0316610c2382610635565b6001600160a01b031614610c8b5760405162461bcd60e51b815260206004820152602960248201527f4552433732313a207472616e73666572206f6620746f6b656e2074686174206960448201526839903737ba1037bbb760b91b6064820152608401610420565b6001600160a01b038216610ced5760405162461bcd60e51b8152602060048201526024808201527f4552433732313a207472616e7366657220746f20746865207a65726f206164646044820152637265737360e01b6064820152608401610420565b610cf8600082610abc565b6001600160a01b0383166000908152600360205260408120805460019290610d21908490611983565b90915550506001600160a01b0382166000908152600360205260408120805460019290610d4f908490611957565b909155505060008181526002602052604080822080546001600160a01b0319166001600160a01b0386811691821790925591518493918716917fddf252ad1be2c89b69c2b068fc378daa952ba7f163c4a11628f55a4df523b3ef91a4505050565b600780546001600160a01b038381166001600160a01b0319831681179093556040519116919082907f8be0079c531659141344cd1fd0a4f28419497f9722a3daafe3b4186f6b6457e090600090a35050565b6001600160a01b038216610e585760405162461bcd60e51b815260206004820181905260248201527f4552433732313a206d696e7420746f20746865207a65726f20616464726573736044820152606401610420565b610e6181610a9f565b15610eae5760405162461bcd60e51b815260206004820152601c60248201527f4552433732313a20746f6b656e20616c7265616479206d696e746564000000006044820152606401610420565b6001600160a01b0382166000908152600360205260408120805460019290610ed7908490611957565b909155505060008181526002602052604080822080546001600160a01b0319166001600160a01b03861690811790915590518392907fddf252ad1be2c89b69c2b068fc378daa952ba7f163c4a11628f55a4df523b3ef908290a45050565b610f3e82610a9f565b610fa15760405162461bcd60e51b815260206004820152602e60248201527f45524337323155524953746f726167653a2055524920736574206f66206e6f6e60448201526d32bc34b9ba32b73a103a37b5b2b760911b6064820152608401610420565b60008281526006602090815260409091208251610556928401906113c1565b816001600160a01b0316836001600160a01b031614156110225760405162461bcd60e51b815260206004820152601960248201527f4552433732313a20617070726f766520746f2063616c6c6572000000000000006044820152606401610420565b6001600160a01b03838116600081815260056020908152604080832094871680845294825291829020805460ff191686151590811790915591519182527f17307eab39ab6107e8899845ad3d59bd9653f200f220920489ca2b5937696c31910160405180910390a3505050565b61109a848484610c10565b6110a68484848461119a565b6108685760405162461bcd60e51b81526004016104209061184e565b60606110cd82610a9f565b6111315760405162461bcd60e51b815260206004820152602f60248201527f4552433732314d657461646174613a2055524920717565727920666f72206e6f60448201526e3732bc34b9ba32b73a103a37b5b2b760891b6064820152608401610420565b600061114860408051602081019091526000815290565b905060008151116111685760405180602001604052806000815250611193565b80611172846112a7565b6040516020016111839291906117cf565b6040516020818303038152906040525b9392505050565b60006001600160a01b0384163b1561129c57604051630a85bd0160e11b81526001600160a01b0385169063150b7a02906111de9033908990889088906004016117fe565b602060405180830381600087803b1580156111f857600080fd5b505af1925050508015611228575060408051601f3d908101601f191682019092526112259181019061173c565b60015b611282573d808015611256576040519150601f19603f3d011682016040523d82523d6000602084013e61125b565b606091505b50805161127a5760405162461bcd60e51b81526004016104209061184e565b805181602001fd5b6001600160e01b031916630a85bd0160e11b1490506109fc565b506001949350505050565b6060816112cb5750506040805180820190915260018152600360fc1b602082015290565b8160005b81156112f557806112df81611a01565b91506112ee9050600a8361196f565b91506112cf565b60008167ffffffffffffffff81111561131e57634e487b7160e01b600052604160045260246000fd5b6040519080825280601f01601f191660200182016040528015611348576020820181803683370190505b5090505b84156109fc5761135d600183611983565b915061136a600a86611a1c565b611375906030611957565b60f81b81838151811061139857634e487b7160e01b600052603260045260246000fd5b60200101906001600160f81b031916908160001a9053506113ba600a8661196f565b945061134c565b8280546113cd906119c6565b90600052602060002090601f0160209004810192826113ef5760008555611435565b82601f1061140857805160ff1916838001178555611435565b82800160010185558215611435579182015b8281111561143557825182559160200191906001019061141a565b50611441929150611445565b5090565b5b808211156114415760008155600101611446565b600067ffffffffffffffff83111561147457611474611a5c565b611487601f8401601f1916602001611926565b905082815283838301111561149b57600080fd5b828260208301376000602084830101529392505050565b80356001600160a01b03811681146114c957600080fd5b919050565b600082601f8301126114de578081fd5b6111938383356020850161145a565b6000602082840312156114fe578081fd5b611193826114b2565b60008060408385031215611519578081fd5b611522836114b2565b9150611530602084016114b2565b90509250929050565b60008060006060848603121561154d578081fd5b611556846114b2565b9250611564602085016114b2565b9150604084013590509250925092565b60008060008060808587031215611589578081fd5b611592856114b2565b93506115a0602086016114b2565b925060408501359150606085013567ffffffffffffffff8111156115c2578182fd5b8501601f810187136115d2578182fd5b6115e18782356020840161145a565b91505092959194509250565b600080604083850312156115ff578182fd5b611608836114b2565b91506020830135801515811461161c578182fd5b809150509250929050565b60008060408385031215611639578182fd5b611642836114b2565b946020939093013593505050565b60008060408385031215611662578182fd5b823567ffffffffffffffff80821115611679578384fd5b818501915085601f83011261168c578384fd5b81356020828211156116a0576116a0611a5c565b8160051b6116af828201611926565b8381528281019086840183880185018c10156116c957898afd5b8997505b858810156116f2576116de816114b2565b8352600197909701969184019184016116cd565b509750505086013592505080821115611709578283fd5b50611716858286016114ce565b9150509250929050565b600060208284031215611731578081fd5b813561119381611a72565b60006020828403121561174d578081fd5b815161119381611a72565b600060208284031215611769578081fd5b813567ffffffffffffffff81111561177f578182fd5b6109fc848285016114ce565b60006020828403121561179c578081fd5b5035919050565b600081518084526117bb81602086016020860161199a565b601f01601f19169290920160200192915050565b600083516117e181846020880161199a565b8351908301906117f581836020880161199a565b01949350505050565b6001600160a01b0385811682528416602082015260408101839052608060608201819052600090611831908301846117a3565b9695505050505050565b60208152600061119360208301846117a3565b60208082526032908201527f4552433732313a207472616e7366657220746f206e6f6e20455243373231526560408201527131b2b4bb32b91034b6b83632b6b2b73a32b960711b606082015260800190565b6020808252818101527f4f776e61626c653a2063616c6c6572206973206e6f7420746865206f776e6572604082015260600190565b60208082526031908201527f4552433732313a207472616e736665722063616c6c6572206973206e6f74206f6040820152701ddb995c881b9bdc88185c1c1c9bdd9959607a1b606082015260800190565b604051601f8201601f1916810167ffffffffffffffff8111828210171561194f5761194f611a5c565b604052919050565b6000821982111561196a5761196a611a30565b500190565b60008261197e5761197e611a46565b500490565b60008282101561199557611995611a30565b500390565b60005b838110156119b557818101518382015260200161199d565b838111156108685750506000910152565b600181811c908216806119da57607f821691505b602082108114156119fb57634e487b7160e01b600052602260045260246000fd5b50919050565b6000600019821415611a1557611a15611a30565b5060010190565b600082611a2b57611a2b611a46565b500690565b634e487b7160e01b600052601160045260246000fd5b634e487b7160e01b600052601260045260246000fd5b634e487b7160e01b600052604160045260246000fd5b6001600160e01b031981168114610a9c57600080fdfea264697066735822122015eb17dec4b2789259f4c2afa190c058eeb22cebe69451336cb0883a4279061864736f6c63430008040033",
  "linkReferences": {},
  "deployedLinkReferences": {}
}